{
  "_format": "hh-sol-artifact-1",
  "contractName": "ClaimManager",
  "sourceName": "contracts/ClaimManager.sol",
  "abi": [
    {
      "inputs": [
        {
          "internalType": "address",
          "name": "owner_",
          "type": "address"
        }
      ],
      "stateMutability": "nonpayable",
      "type": "constructor"
    },
    {
      "anonymous": false,
      "inputs": [
        {
          "indexed": true,
          "internalType": "uint256",
          "name": "claimId",
          "type": "uint256"
        },
        {
          "indexed": false,
          "internalType": "enum ClaimManager.ClaimStatus",
          "name": "status",
          "type": "uint8"
        },
        {
          "indexed": false,
          "internalType": "uint256",
          "name": "approvedAmount",
          "type": "uint256"
        }
      ],
      "name": "ClaimProcessed",
      "type": "event"
    },
    {
      "anonymous": false,
      "inputs": [
        {
          "indexed": true,
          "internalType": "uint256",
          "name": "claimId",
          "type": "uint256"
        },
        {
          "indexed": true,
          "internalType": "uint256",
          "name": "policyId",
          "type": "uint256"
        },
        {
          "indexed": true,
          "internalType": "address",
          "name": "claimant",
          "type": "address"
        },
        {
          "indexed": false,
          "internalType": "uint256",
          "name": "amount",
          "type": "uint256"
        }
      ],
      "name": "ClaimSubmitted",
      "type": "event"
    },
    {
      "anonymous": false,
      "inputs": [
        {
          "indexed": true,
          "internalType": "address",
          "name": "doctor",
          "type": "address"
        },
        {
          "indexed": false,
          "internalType": "bool",
          "name": "authorized",
          "type": "bool"
        }
      ],
      "name": "DoctorAuthorized",
      "type": "event"
    },
    {
      "anonymous": false,
      "inputs": [
        {
          "indexed": false,
          "internalType": "address",
          "name": "policyManager",
          "type": "address"
        },
        {
          "indexed": false,
          "internalType": "address",
          "name": "riskPool",
          "type": "address"
        }
      ],
      "name": "ManagersSet",
      "type": "event"
    },
    {
      "anonymous": false,
      "inputs": [
        {
          "indexed": true,
          "internalType": "address",
          "name": "previousOwner",
          "type": "address"
        },
        {
          "indexed": true,
          "internalType": "address",
          "name": "newOwner",
          "type": "address"
        }
      ],
      "name": "OwnershipTransferred",
      "type": "event"
    },
    {
      "anonymous": false,
      "inputs": [
        {
          "indexed": false,
          "internalType": "address",
          "name": "account",
          "type": "address"
        }
      ],
      "name": "Paused",
      "type": "event"
    },
    {
      "anonymous": false,
      "inputs": [
        {
          "indexed": false,
          "internalType": "address",
          "name": "account",
          "type": "address"
        }
      ],
      "name": "Unpaused",
      "type": "event"
    },
    {
      "inputs": [
        {
          "internalType": "address",
          "name": "doctor",
          "type": "address"
        },
        {
          "internalType": "bool",
          "name": "ok",
          "type": "bool"
        }
      ],
      "name": "authorizeDoctor",
      "outputs": [],
      "stateMutability": "nonpayable",
      "type": "function"
    },
    {
      "inputs": [
        {
          "internalType": "address",
          "name": "",
          "type": "address"
        }
      ],
      "name": "authorizedDoctors",
      "outputs": [
        {
          "internalType": "bool",
          "name": "",
          "type": "bool"
        }
      ],
      "stateMutability": "view",
      "type": "function"
    },
    {
      "inputs": [
        {
          "internalType": "uint256",
          "name": "",
          "type": "uint256"
        }
      ],
      "name": "claims",
      "outputs": [
        {
          "internalType": "uint256",
          "name": "claimId",
          "type": "uint256"
        },
        {
          "internalType": "uint256",
          "name": "policyId",
          "type": "uint256"
        },
        {
          "internalType": "address",
          "name": "claimant",
          "type": "address"
        },
        {
          "internalType": "uint256",
          "name": "claimAmount",
          "type": "uint256"
        },
        {
          "internalType": "uint256",
          "name": "approvedAmount",
          "type": "uint256"
        },
        {
          "internalType": "enum ClaimManager.ClaimStatus",
          "name": "status",
          "type": "uint8"
        },
        {
          "internalType": "uint256",
          "name": "submissionDate",
          "type": "uint256"
        },
        {
          "internalType": "uint256",
          "name": "processedDate",
          "type": "uint256"
        },
        {
          "internalType": "string",
          "name": "ipfsDocuments",
          "type": "string"
        },
        {
          "internalType": "string",
          "name": "description",
          "type": "string"
        }
      ],
      "stateMutability": "view",
      "type": "function"
    },
    {
      "inputs": [
        {
          "internalType": "uint256",
          "name": "policyId",
          "type": "uint256"
        }
      ],
      "name": "getPolicyClaims",
      "outputs": [
        {
          "internalType": "uint256[]",
          "name": "",
          "type": "uint256[]"
        }
      ],
      "stateMutability": "view",
      "type": "function"
    },
    {
      "inputs": [],
      "name": "getTotalClaims",
      "outputs": [
        {
          "internalType": "uint256",
          "name": "",
          "type": "uint256"
        }
      ],
      "stateMutability": "view",
      "type": "function"
    },
    {
      "inputs": [],
      "name": "owner",
      "outputs": [
        {
          "internalType": "address",
          "name": "",
          "type": "address"
        }
      ],
      "stateMutability": "view",
      "type": "function"
    },
    {
      "inputs": [],
      "name": "pause",
      "outputs": [],
      "stateMutability": "nonpayable",
      "type": "function"
    },
    {
      "inputs": [],
      "name": "paused",
      "outputs": [
        {
          "internalType": "bool",
          "name": "",
          "type": "bool"
        }
      ],
      "stateMutability": "view",
      "type": "function"
    },
    {
      "inputs": [
        {
          "internalType": "uint256",
          "name": "",
          "type": "uint256"
        },
        {
          "internalType": "uint256",
          "name": "",
          "type": "uint256"
        }
      ],
      "name": "policyClaims",
      "outputs": [
        {
          "internalType": "uint256",
          "name": "",
          "type": "uint256"
        }
      ],
      "stateMutability": "view",
      "type": "function"
    },
    {
      "inputs": [],
      "name": "policyManager",
      "outputs": [
        {
          "internalType": "contract IPolicyManager",
          "name": "",
          "type": "address"
        }
      ],
      "stateMutability": "view",
      "type": "function"
    },
    {
      "inputs": [
        {
          "internalType": "uint256",
          "name": "_claimId",
          "type": "uint256"
        },
        {
          "internalType": "enum ClaimManager.ClaimStatus",
          "name": "_status",
          "type": "uint8"
        },
        {
          "internalType": "uint256",
          "name": "_approvedAmount",
          "type": "uint256"
        }
      ],
      "name": "processClaim",
      "outputs": [],
      "stateMutability": "nonpayable",
      "type": "function"
    },
    {
      "inputs": [],
      "name": "renounceOwnership",
      "outputs": [],
      "stateMutability": "nonpayable",
      "type": "function"
    },
    {
      "inputs": [],
      "name": "riskPool",
      "outputs": [
        {
          "internalType": "contract IRiskPool",
          "name": "",
          "type": "address"
        }
      ],
      "stateMutability": "view",
      "type": "function"
    },
    {
      "inputs": [
        {
          "internalType": "address",
          "name": "_policyManager",
          "type": "address"
        },
        {
          "internalType": "address",
          "name": "_riskPool",
          "type": "address"
        }
      ],
      "name": "setManagers",
      "outputs": [],
      "stateMutability": "nonpayable",
      "type": "function"
    },
    {
      "inputs": [
        {
          "internalType": "uint256",
          "name": "_policyId",
          "type": "uint256"
        },
        {
          "internalType": "uint256",
          "name": "_claimAmount",
          "type": "uint256"
        },
        {
          "internalType": "string",
          "name": "_ipfsDocuments",
          "type": "string"
        },
        {
          "internalType": "string",
          "name": "_description",
          "type": "string"
        }
      ],
      "name": "submitClaim",
      "outputs": [],
      "stateMutability": "nonpayable",
      "type": "function"
    },
    {
      "inputs": [
        {
          "internalType": "address",
          "name": "newOwner",
          "type": "address"
        }
      ],
      "name": "transferOwnership",
      "outputs": [],
      "stateMutability": "nonpayable",
      "type": "function"
    },
    {
      "inputs": [],
      "name": "unpause",
      "outputs": [],
      "stateMutability": "nonpayable",
      "type": "function"
    }
  ],
  "bytecode": "0x60803461008257601f61187138819003918201601f19168301916001600160401b038311848410176100875780849260209460405283398101031261008257516001600160a01b0381168103610082576100739060016000556100613361009d565b6001805460ff60a01b1916905561009d565b60405161178a90816100e78239f35b600080fd5b634e487b7160e01b600052604160045260246000fd5b600180546001600160a01b039283166001600160a01b0319821681179092559091167f8be0079c531659141344cd1fd0a4f28419497f9722a3daafe3b4186f6b6457e0600080a356fe608080604052600436101561001357600080fd5b60003560e01c90816316daa23b14610d7c5750806326ebfe8814610cfc5780632d3975f014610cbd5780633e2045ea14610c175780633f4ba83a14610b74578063560eb39414610b2d5780635c975abb14610b07578063715018a614610aac5780638456cb5914610a3b5780638da5cb5b14610a14578063a888c2cd14610946578063a92e29bc146108be578063ab3dbf3b14610897578063c4e5dacf14610870578063c5834660146107b5578063d291babd146101b85763f2fde38b146100da57600080fd5b346101b35760203660031901126101b3576100f3610d97565b6100fb610f87565b6001600160a01b0380911690811561014857600154826001600160a01b0319821617600155167f8be0079c531659141344cd1fd0a4f28419497f9722a3daafe3b4186f6b6457e0600080a3005b60405162461bcd60e51b815260206004820152602660248201527f4f776e61626c653a206e6577206f776e657220697320746865207a65726f206160448201527f64647265737300000000000000000000000000000000000000000000000000006064820152608490fd5b600080fd5b346101b35760803660031901126101b35760443567ffffffffffffffff81116101b3576101e9903690600401610f59565b9060643567ffffffffffffffff81116101b35761020a903690600401610f59565b91906102146110ea565b61021c610fdf565b602460206001600160a01b0360035416604051928380926333a4165560e11b825260043560048301525afa9081156107a95760009161076e575b5015610729576102676004356116f1565b906001600160a01b03339116036106e45760ff610285911615611033565b6024351561069f576004549260001984146106895760018401600455604051948561014081011067ffffffffffffffff610140880111176104eb5761031b9361030e9161014088016040526001870188526004356020890152336040890152602435606089015260006080890152600060a08901524260c0890152600060e0890152369161109b565b610100860152369161109b565b61012083015260018101600052600560205260406000208251815560208301516001820155600281016001600160a01b036040850151166001600160a01b0319825416179055606083015160038201556080830151600482015561038f60a084015161038681610ef1565b600583016110d2565b60c0830151600682015560e0830151600782015561010083015192835167ffffffffffffffff81116104eb576103c86008840154610ddb565b601f8111610642575b506020601f82116001146105ce5781906101209495966000926105c3575b50508160011b916000199060031b1c19161760088401555b015180519067ffffffffffffffff82116104eb576104286009840154610ddb565b601f811161057c575b50602090601f831160011461050c576009929160009183610501575b50508160011b916000199060031b1c1916179101555b600435600052600660205260406000208054680100000000000000008110156104eb5761049591600182018155610dad565b81549060031b9060018401821b91600019901b191617905560405190602435825233917f3a30d1c4069e097873e77443df9683e8de5c7ba3674315b8670a0211e313019560206001600435940192a46001600055005b634e487b7160e01b600052604160045260246000fd5b01519050858061044d565b906009840160005260206000209160005b601f19851681106105645750918391600193600995601f1981161061054b575b505050811b01910155610463565b015160001960f88460031b161c1916905585808061053d565b9192602060018192868501518155019401920161051d565b600984016000526020600020601f840160051c8101602085106105bc575b601f830160051c820181106105b0575050610431565b6000815560010161059a565b508061059a565b0151905086806103ef565b6008840160005260206000209560005b601f198416811061062a5750958291610120959697600194601f19811610610611575b505050811b016008840155610407565b015160001960f88460031b161c19169055868080610601565b828201518855600190970196602092830192016105de565b600884016000526020600020601f830160051c810160208410610682575b601f830160051c820181106106765750506103d1565b60008155600101610660565b5080610660565b634e487b7160e01b600052601160045260246000fd5b60405162461bcd60e51b815260206004820152600860248201527f616d6f756e743d300000000000000000000000000000000000000000000000006044820152606490fd5b60405162461bcd60e51b815260206004820152600a60248201527f6e6f7420686f6c646572000000000000000000000000000000000000000000006044820152606490fd5b60405162461bcd60e51b815260206004820152600e60248201527f706f6c69637920696e76616c69640000000000000000000000000000000000006044820152606490fd5b90506020813d6020116107a1575b8161078960209383610e29565b810103126101b3575180151581036101b35785610256565b3d915061077c565b6040513d6000823e3d90fd5b346101b35760603660031901126101b35760243560048110156101b3576107da6110ea565b6001600160a01b036001541633148015610858575b156108135761080c90610800610fdf565b6044359060043561114d565b6001600055005b60405162461bcd60e51b815260206004820152600e60248201527f6e6f7420617574686f72697a65640000000000000000000000000000000000006044820152606490fd5b5033600052600760205260ff604060002054166107ef565b346101b35760003660031901126101b35760206001600160a01b0360025416604051908152f35b346101b35760003660031901126101b35760206001600160a01b0360035416604051908152f35b346101b35760403660031901126101b3576108d7610d97565b602435906001600160a01b03918281168091036101b3577f6a1f99fde8a7d170aa5ee6f8c1d80a528f03fde6b4df3fdddbb18513dfc64eff9260409261091b610f87565b1690806001600160a01b031983816003541617600355600254161760025582519182526020820152a1005b346101b35760203660031901126101b357600435600052600560205260406000208054610a10600183015492610a016001600160a01b03600283015416916003810154600482015460ff6005840154166006840154916007850154936109ba60096109b360088901610e4b565b9701610e4b565b976040519b8c9b8c5260208c015260408b015260608a015260808901526109e081610ef1565b60a088015260c087015260e086015261014080610100870152850190610f34565b90838203610120850152610f34565b0390f35b346101b35760003660031901126101b35760206001600160a01b0360015416604051908152f35b346101b35760003660031901126101b357610a54610f87565b610a5c610fdf565b7401000000000000000000000000000000000000000060ff60a01b1960015416176001557f62e78cea01bee320cd4e420270b5ea74000d11b0c9f74754ebdbfc544b05a2586020604051338152a1005b346101b35760003660031901126101b357610ac5610f87565b60006001600160a01b036001546001600160a01b03198116600155167f8be0079c531659141344cd1fd0a4f28419497f9722a3daafe3b4186f6b6457e08280a3005b346101b35760003660031901126101b357602060ff60015460a01c166040519015158152f35b346101b35760403660031901126101b3576024356004356000526006602052604060002080548210156101b357602091610b6691610dad565b90546040519160031b1c8152f35b346101b35760003660031901126101b357610b8d610f87565b60015460ff8160a01c1615610bd25760ff60a01b19166001557f5db9ee0a495bf2e6ff9c91a7834c1ba4fdd244a5e8aa4e537bd38aeae4b073aa6020604051338152a1005b60405162461bcd60e51b815260206004820152601460248201527f5061757361626c653a206e6f74207061757365640000000000000000000000006044820152606490fd5b346101b3576020806003193601126101b35760043560005260068152604060002060405190818382549182815201908192600052846000209060005b86828210610ca9578686610c6982880383610e29565b604051928392818401908285525180915260408401929160005b828110610c9257505050500390f35b835185528695509381019392810192600101610c83565b835485529093019260019283019201610c53565b346101b35760203660031901126101b3576001600160a01b03610cde610d97565b166000526007602052602060ff604060002054166040519015158152f35b346101b35760403660031901126101b357610d15610d97565b602435908115158092036101b35760206001600160a01b037ff3723224ccf3ef7268a98bbc2481e8e48c482645d932b1eb7daa63664d60465992610d57610f87565b16928360005260078252604060002060ff1981541660ff8316179055604051908152a2005b346101b35760003660031901126101b3576020906004548152f35b600435906001600160a01b03821682036101b357565b8054821015610dc55760005260206000200190600090565b634e487b7160e01b600052603260045260246000fd5b90600182811c92168015610e0b575b6020831014610df557565b634e487b7160e01b600052602260045260246000fd5b91607f1691610dea565b67ffffffffffffffff81116104eb57604052565b90601f8019910116810190811067ffffffffffffffff8211176104eb57604052565b9060405191826000825492610e5f84610ddb565b908184526001948581169081600014610ece5750600114610e8b575b5050610e8992500383610e29565b565b9093915060005260209081600020936000915b818310610eb6575050610e8993508201013880610e7b565b85548884018501529485019487945091830191610e9e565b915050610e8994506020925060ff191682840152151560051b8201013880610e7b565b60041115610efb57565b634e487b7160e01b600052602160045260246000fd5b60005b838110610f245750506000910152565b8181015183820152602001610f14565b90602091610f4d81518092818552858086019101610f11565b601f01601f1916010190565b9181601f840112156101b35782359167ffffffffffffffff83116101b357602083818601950101116101b357565b6001600160a01b03600154163303610f9b57565b606460405162461bcd60e51b815260206004820152602060248201527f4f776e61626c653a2063616c6c6572206973206e6f7420746865206f776e65726044820152fd5b60ff60015460a01c16610fee57565b60405162461bcd60e51b815260206004820152601060248201527f5061757361626c653a20706175736564000000000000000000000000000000006044820152606490fd5b1561103a57565b60405162461bcd60e51b815260206004820152600f60248201527f706f6c69637920696e61637469766500000000000000000000000000000000006044820152606490fd5b67ffffffffffffffff81116104eb57601f01601f191660200190565b9291926110a78261107f565b916110b56040519384610e29565b8294818452818301116101b3578281602093846000960137010152565b906110dc81610ef1565b60ff80198354169116179055565b6002600054146110fb576002600055565b60405162461bcd60e51b815260206004820152601f60248201527f5265656e7472616e637947756172643a207265656e7472616e742063616c6c006044820152606490fd5b9190820391821161068957565b90929192600093821515806115e2575b1561159d578285526020600581526040928387206005810160ff81541661118381610ef1565b6115595760ff600183016111a361119a82546116f1565b90931615611033565b60028401946001600160a01b03928380885416911603611515576111c681610ef1565b600181036114c25750861561147e576003840154871161143a579060249154948b82600354168a519485809263d3e8948360e01b82528a60048301525afa978815611430578c809981809681926113f2575b5050808211156113e95761122b91611140565b935b808211156113e05761123e91611140565b925b8084116113d8575b506004850197838955831561138c578c60ff19976001898854161787558460035416803b1561138857604483928e519485938492633c3a93d960e01b845260048401528a60248401525af1801561137c57611365575b50908291828e946002541692541694823b156113615760849285918d519788968795631f61502360e01b8752166004860152602485015260448401528d60648401525af180156113575761133f575b50917f131884885e3b15c22fcaa4e2b49df807c03ab9e54bc149f6447e3c9166ce881496979891836003809554938416179055600742910155161791549083519261133781610ef1565b8352820152a2565b6113498a91610e15565b61135357386112ed565b8880fd5b87513d8c823e3d90fd5b8480fd5b611373909d9193929d610e15565b9b90913861129e565b8e8c51903d90823e3d90fd5b8280fd5b5050509394509091507f131884885e3b15c22fcaa4e2b49df807c03ab9e54bc149f6447e3c9166ce881495969750600260ff1982541617905560074291015582519160028352820152a2565b925038611248565b50508b92611240565b50508c9361122d565b92509550506114149199503d8086833e61140c8183610e29565b810190611610565b9d505050505050505094509c9497925090509a91959038611218565b89513d8e823e3d90fd5b875162461bcd60e51b815260048101879052600e60248201527f617070726f7665643e636c61696d0000000000000000000000000000000000006044820152606490fd5b875162461bcd60e51b815260048101879052600a60248201527f617070726f7665643d30000000000000000000000000000000000000000000006044820152606490fd5b90507f131884885e3b15c22fcaa4e2b49df807c03ab9e54bc149f6447e3c9166ce881498999a5060ff939650600494506114fd9150826110d2565b42600786015554169201549083519261133781610ef1565b885162461bcd60e51b815260048101889052601160248201527f636c61696d616e74206d69736d617463680000000000000000000000000000006044820152606490fd5b855162461bcd60e51b815260048101859052600960248201527f70726f63657373656400000000000000000000000000000000000000000000006044820152606490fd5b60405162461bcd60e51b815260206004820152600660248201527f62616420696400000000000000000000000000000000000000000000000000006044820152606490fd5b5060045483111561115d565b51906001600160a01b03821682036101b357565b519060ff821682036101b357565b906101e0828203126101b35781519261162b602084016115ee565b9261163860408201611602565b9261164560608301611602565b92611652608084016115ee565b9260a08101519260c08201519260e0830151926101008101519261012082015192610140830151926116876101608201611602565b9261018082015167ffffffffffffffff81116101b357820181601f820112156101b35780516116b58161107f565b926116c36040519485610e29565b818452602082840101116101b3576116e19160208085019101610f11565b916101c06101a083015192015190565b60006001600160a01b03600354169160246040518094819363d3e8948360e01b835260048301525afa80156107a957600091829161172e57509091565b9050611743913d8091833e61140c8183610e29565b5050509a505050505050505050509156fea264697066735822122074a68c843e916ff983a8ed987b01041512a1bb4a7c74718e42009c713389eab064736f6c63430008140033",
  "linkReferences": {},
  "deployedLinkReferences": {}
}