{
  "_format": "hh-sol-artifact-1",
  "contractName": "PolicyManager",
  "sourceName": "contracts/PolicyManager.sol",
  "abi": [
    {
      "inputs": [
        {
          "internalType": "address",
          "name": "owner_",
          "type": "address"
        }
      ],
      "stateMutability": "nonpayable",
      "type": "constructor"
    },
    {
      "anonymous": false,
      "inputs": [
        {
          "indexed": false,
          "internalType": "address",
          "name": "claimManager",
          "type": "address"
        }
      ],
      "name": "ClaimManagerSet",
      "type": "event"
    },
    {
      "anonymous": false,
      "inputs": [
        {
          "indexed": true,
          "internalType": "address",
          "name": "previousOwner",
          "type": "address"
        },
        {
          "indexed": true,
          "internalType": "address",
          "name": "newOwner",
          "type": "address"
        }
      ],
      "name": "OwnershipTransferred",
      "type": "event"
    },
    {
      "anonymous": false,
      "inputs": [
        {
          "indexed": false,
          "internalType": "address",
          "name": "account",
          "type": "address"
        }
      ],
      "name": "Paused",
      "type": "event"
    },
    {
      "anonymous": false,
      "inputs": [
        {
          "indexed": false,
          "internalType": "enum PolicyManager.PlanType",
          "name": "planType",
          "type": "uint8"
        },
        {
          "indexed": false,
          "internalType": "uint256",
          "name": "oneTimePrice",
          "type": "uint256"
        },
        {
          "indexed": false,
          "internalType": "uint256",
          "name": "monthlyPrice",
          "type": "uint256"
        },
        {
          "indexed": false,
          "internalType": "uint256",
          "name": "coverageAmount",
          "type": "uint256"
        }
      ],
      "name": "PlanCreated",
      "type": "event"
    },
    {
      "anonymous": false,
      "inputs": [
        {
          "indexed": true,
          "internalType": "uint256",
          "name": "policyId",
          "type": "uint256"
        },
        {
          "indexed": true,
          "internalType": "address",
          "name": "by",
          "type": "address"
        }
      ],
      "name": "PolicyCancelled",
      "type": "event"
    },
    {
      "anonymous": false,
      "inputs": [
        {
          "indexed": true,
          "internalType": "uint256",
          "name": "policyId",
          "type": "uint256"
        },
        {
          "indexed": true,
          "internalType": "address",
          "name": "policyholder",
          "type": "address"
        },
        {
          "indexed": false,
          "internalType": "enum PolicyManager.PlanType",
          "name": "planType",
          "type": "uint8"
        },
        {
          "indexed": false,
          "internalType": "enum PolicyManager.PaymentType",
          "name": "paymentType",
          "type": "uint8"
        },
        {
          "indexed": false,
          "internalType": "address",
          "name": "token",
          "type": "address"
        },
        {
          "indexed": false,
          "internalType": "uint256",
          "name": "premium",
          "type": "uint256"
        }
      ],
      "name": "PolicyPurchased",
      "type": "event"
    },
    {
      "anonymous": false,
      "inputs": [
        {
          "indexed": true,
          "internalType": "uint256",
          "name": "policyId",
          "type": "uint256"
        },
        {
          "indexed": true,
          "internalType": "address",
          "name": "policyholder",
          "type": "address"
        },
        {
          "indexed": false,
          "internalType": "address",
          "name": "token",
          "type": "address"
        },
        {
          "indexed": false,
          "internalType": "uint256",
          "name": "amount",
          "type": "uint256"
        },
        {
          "indexed": false,
          "internalType": "uint256",
          "name": "timestamp",
          "type": "uint256"
        }
      ],
      "name": "PremiumPaid",
      "type": "event"
    },
    {
      "anonymous": false,
      "inputs": [
        {
          "indexed": false,
          "internalType": "address",
          "name": "pool",
          "type": "address"
        }
      ],
      "name": "RiskPoolSet",
      "type": "event"
    },
    {
      "anonymous": false,
      "inputs": [
        {
          "indexed": false,
          "internalType": "address",
          "name": "token",
          "type": "address"
        },
        {
          "indexed": false,
          "internalType": "bool",
          "name": "enabled",
          "type": "bool"
        }
      ],
      "name": "TokenWhitelisted",
      "type": "event"
    },
    {
      "anonymous": false,
      "inputs": [
        {
          "indexed": false,
          "internalType": "address",
          "name": "account",
          "type": "address"
        }
      ],
      "name": "Unpaused",
      "type": "event"
    },
    {
      "inputs": [
        {
          "internalType": "address",
          "name": "",
          "type": "address"
        }
      ],
      "name": "acceptedTokens",
      "outputs": [
        {
          "internalType": "bool",
          "name": "",
          "type": "bool"
        }
      ],
      "stateMutability": "view",
      "type": "function"
    },
    {
      "inputs": [
        {
          "internalType": "uint256",
          "name": "_policyId",
          "type": "uint256"
        }
      ],
      "name": "cancelPolicy",
      "outputs": [],
      "stateMutability": "nonpayable",
      "type": "function"
    },
    {
      "inputs": [],
      "name": "claimManager",
      "outputs": [
        {
          "internalType": "address",
          "name": "",
          "type": "address"
        }
      ],
      "stateMutability": "view",
      "type": "function"
    },
    {
      "inputs": [
        {
          "internalType": "uint256",
          "name": "policyId",
          "type": "uint256"
        },
        {
          "internalType": "uint256",
          "name": "amount",
          "type": "uint256"
        }
      ],
      "name": "consumeCoverage",
      "outputs": [],
      "stateMutability": "nonpayable",
      "type": "function"
    },
    {
      "inputs": [
        {
          "internalType": "uint256",
          "name": "_pid",
          "type": "uint256"
        }
      ],
      "name": "getRemainingCoverage",
      "outputs": [
        {
          "internalType": "uint256",
          "name": "",
          "type": "uint256"
        }
      ],
      "stateMutability": "view",
      "type": "function"
    },
    {
      "inputs": [],
      "name": "getTotalPolicies",
      "outputs": [
        {
          "internalType": "uint256",
          "name": "",
          "type": "uint256"
        }
      ],
      "stateMutability": "view",
      "type": "function"
    },
    {
      "inputs": [
        {
          "internalType": "address",
          "name": "_user",
          "type": "address"
        }
      ],
      "name": "getUserPolicies",
      "outputs": [
        {
          "internalType": "uint256[]",
          "name": "",
          "type": "uint256[]"
        }
      ],
      "stateMutability": "view",
      "type": "function"
    },
    {
      "inputs": [
        {
          "internalType": "enum PolicyManager.PlanType",
          "name": "",
          "type": "uint8"
        }
      ],
      "name": "insurancePlans",
      "outputs": [
        {
          "internalType": "enum PolicyManager.PlanType",
          "name": "planType",
          "type": "uint8"
        },
        {
          "internalType": "uint256",
          "name": "oneTimePrice",
          "type": "uint256"
        },
        {
          "internalType": "uint256",
          "name": "monthlyPrice",
          "type": "uint256"
        },
        {
          "internalType": "uint256",
          "name": "coverageAmount",
          "type": "uint256"
        },
        {
          "internalType": "uint256",
          "name": "deductible",
          "type": "uint256"
        },
        {
          "internalType": "string",
          "name": "ipfsHash",
          "type": "string"
        },
        {
          "internalType": "bool",
          "name": "isActive",
          "type": "bool"
        }
      ],
      "stateMutability": "view",
      "type": "function"
    },
    {
      "inputs": [
        {
          "internalType": "uint256",
          "name": "_policyId",
          "type": "uint256"
        }
      ],
      "name": "isPolicyValid",
      "outputs": [
        {
          "internalType": "bool",
          "name": "",
          "type": "bool"
        }
      ],
      "stateMutability": "view",
      "type": "function"
    },
    {
      "inputs": [],
      "name": "owner",
      "outputs": [
        {
          "internalType": "address",
          "name": "",
          "type": "address"
        }
      ],
      "stateMutability": "view",
      "type": "function"
    },
    {
      "inputs": [],
      "name": "pause",
      "outputs": [],
      "stateMutability": "nonpayable",
      "type": "function"
    },
    {
      "inputs": [],
      "name": "paused",
      "outputs": [
        {
          "internalType": "bool",
          "name": "",
          "type": "bool"
        }
      ],
      "stateMutability": "view",
      "type": "function"
    },
    {
      "inputs": [
        {
          "internalType": "uint256",
          "name": "_policyId",
          "type": "uint256"
        }
      ],
      "name": "payMonthlyPremium",
      "outputs": [],
      "stateMutability": "nonpayable",
      "type": "function"
    },
    {
      "inputs": [
        {
          "internalType": "uint256",
          "name": "",
          "type": "uint256"
        }
      ],
      "name": "policies",
      "outputs": [
        {
          "internalType": "uint256",
          "name": "policyId",
          "type": "uint256"
        },
        {
          "internalType": "address",
          "name": "policyholder",
          "type": "address"
        },
        {
          "internalType": "enum PolicyManager.PlanType",
          "name": "planType",
          "type": "uint8"
        },
        {
          "internalType": "enum PolicyManager.PaymentType",
          "name": "paymentType",
          "type": "uint8"
        },
        {
          "internalType": "address",
          "name": "paymentToken",
          "type": "address"
        },
        {
          "internalType": "uint256",
          "name": "coverageAmount",
          "type": "uint256"
        },
        {
          "internalType": "uint256",
          "name": "deductible",
          "type": "uint256"
        },
        {
          "internalType": "uint256",
          "name": "premium",
          "type": "uint256"
        },
        {
          "internalType": "uint256",
          "name": "startDate",
          "type": "uint256"
        },
        {
          "internalType": "uint256",
          "name": "endDate",
          "type": "uint256"
        },
        {
          "internalType": "uint256",
          "name": "lastPaymentDate",
          "type": "uint256"
        },
        {
          "internalType": "enum PolicyManager.PolicyStatus",
          "name": "status",
          "type": "uint8"
        },
        {
          "internalType": "string",
          "name": "ipfsMetadata",
          "type": "string"
        },
        {
          "internalType": "uint256",
          "name": "totalPaid",
          "type": "uint256"
        },
        {
          "internalType": "uint256",
          "name": "claimsUsed",
          "type": "uint256"
        }
      ],
      "stateMutability": "view",
      "type": "function"
    },
    {
      "inputs": [
        {
          "internalType": "enum PolicyManager.PlanType",
          "name": "_planType",
          "type": "uint8"
        },
        {
          "internalType": "enum PolicyManager.PaymentType",
          "name": "_paymentType",
          "type": "uint8"
        },
        {
          "internalType": "address",
          "name": "_token",
          "type": "address"
        },
        {
          "internalType": "string",
          "name": "_ipfsMetadata",
          "type": "string"
        }
      ],
      "name": "purchasePolicy",
      "outputs": [],
      "stateMutability": "nonpayable",
      "type": "function"
    },
    {
      "inputs": [],
      "name": "renounceOwnership",
      "outputs": [],
      "stateMutability": "nonpayable",
      "type": "function"
    },
    {
      "inputs": [],
      "name": "riskPool",
      "outputs": [
        {
          "internalType": "contract IRiskPool",
          "name": "",
          "type": "address"
        }
      ],
      "stateMutability": "view",
      "type": "function"
    },
    {
      "inputs": [
        {
          "internalType": "address",
          "name": "_cm",
          "type": "address"
        }
      ],
      "name": "setClaimManager",
      "outputs": [],
      "stateMutability": "nonpayable",
      "type": "function"
    },
    {
      "inputs": [
        {
          "internalType": "address",
          "name": "_pool",
          "type": "address"
        }
      ],
      "name": "setRiskPool",
      "outputs": [],
      "stateMutability": "nonpayable",
      "type": "function"
    },
    {
      "inputs": [
        {
          "internalType": "address",
          "name": "newOwner",
          "type": "address"
        }
      ],
      "name": "transferOwnership",
      "outputs": [],
      "stateMutability": "nonpayable",
      "type": "function"
    },
    {
      "inputs": [],
      "name": "unpause",
      "outputs": [],
      "stateMutability": "nonpayable",
      "type": "function"
    },
    {
      "inputs": [
        {
          "internalType": "enum PolicyManager.PlanType",
          "name": "_planType",
          "type": "uint8"
        },
        {
          "internalType": "uint256",
          "name": "_oneTimePrice",
          "type": "uint256"
        },
        {
          "internalType": "uint256",
          "name": "_monthlyPrice",
          "type": "uint256"
        },
        {
          "internalType": "uint256",
          "name": "_coverageAmount",
          "type": "uint256"
        },
        {
          "internalType": "uint256",
          "name": "_deductible",
          "type": "uint256"
        }
      ],
      "name": "updateInsurancePlan",
      "outputs": [],
      "stateMutability": "nonpayable",
      "type": "function"
    },
    {
      "inputs": [
        {
          "internalType": "enum PolicyManager.PlanType",
          "name": "_planType",
          "type": "uint8"
        },
        {
          "internalType": "string",
          "name": "_ipfsHash",
          "type": "string"
        }
      ],
      "name": "updatePlanMetadata",
      "outputs": [],
      "stateMutability": "nonpayable",
      "type": "function"
    },
    {
      "inputs": [
        {
          "internalType": "address",
          "name": "",
          "type": "address"
        },
        {
          "internalType": "uint256",
          "name": "",
          "type": "uint256"
        }
      ],
      "name": "userPolicies",
      "outputs": [
        {
          "internalType": "uint256",
          "name": "",
          "type": "uint256"
        }
      ],
      "stateMutability": "view",
      "type": "function"
    },
    {
      "inputs": [
        {
          "internalType": "address",
          "name": "token",
          "type": "address"
        },
        {
          "internalType": "bool",
          "name": "enabled",
          "type": "bool"
        }
      ],
      "name": "whitelistToken",
      "outputs": [],
      "stateMutability": "nonpayable",
      "type": "function"
    }
  ],
  "bytecode": "0x6080346200071557601f6200289638819003918201601f19168301916001600160401b038311848410176200052f578084926020946040528339810103126200071557516001600160a01b038116810362000715576200007c90600160005562000069336200075a565b6001805460ff60a01b191690556200075a565b620000866200071a565b6000815268056bc75e2d631000006020820152678ac7230489e80000604082015269021e19e0c9bab240000060608201526802b5e3af16b18800006080820152620000d06200073a565b6000815260a0820152600160c0820152600080526003602052604060002081516003811015620005455760ff801983541691161781556020820151600182015560408201516002820155606082015160038201556080820151600482015560a082015180519060018060401b0382116200052f576005830154600181811c911680156200070a575b60208210146200050e57601f8111620006be575b50602090601f83116001146200064457918060c0949260069460009262000638575b50508160011b916000199060031b1c19161760058201555b01910151151560ff80198354169116179055620001c26200071a565b60018152680d8d726b7177a80000602082015268015af1d78b58c4000080604083015269054b40b1f852bda0000060608301526080820152620002046200073a565b6000815260a0820152600160c082015260016000526003602052604060002081516003811015620005455760ff801983541691161781556020820151600182015560408201516002820155606082015160038201556080820151600482015560a082015180519060018060401b0382116200052f576005830154600181811c911680156200062d575b60208210146200050e57601f8111620005e1575b50602090601f83116001146200056757918060c094926006946000926200055b575b50508160011b916000199060031b1c19161760058201555b01910151151560ff80198354169116179055620002f76200071a565b60028152681b1ae4d6e2ef50000060208201526802b5e3af16b18800006040820152690a968163f0a57b4000006060820152678ac7230489e800006080820152620003416200073a565b6000815260a0820152600160c082015260026000526003602052604060002081516003811015620005455760ff801983541691161781556020820151600182015560408201516002820155606082015160038201556080820151600482015560a082015180519060018060401b0382116200052f576005830154600181811c9116801562000524575b60208210146200050e57601f8111620004be575b50602090601f83116001146200044657918060c094926006946000926200043a575b50508160011b916000199060031b1c19161760058201555b01910151151560ff801983541691161790556040516120f29081620007a48239f35b01519050388062000400565b90601f198316916005850160005260206000209260005b818110620004a5575092600192859260069660c09896106200048b575b505050811b01600582015562000418565b015160001960f88460031b161c191690553880806200047a565b929360206001819287860151815501950193016200045d565b600584016000526020600020601f840160051c8101916020851062000503575b601f0160051c01905b818110620004f65750620003de565b60008155600101620004e7565b9091508190620004de565b634e487b7160e01b600052602260045260246000fd5b90607f1690620003ca565b634e487b7160e01b600052604160045260246000fd5b634e487b7160e01b600052602160045260246000fd5b015190503880620002c3565b906005840160005260206000209160005b601f1985168110620005c857509260c0949260019260069583601f19811610620005ae575b505050811b016005820155620002db565b015160001960f88460031b161c191690553880806200059d565b9192602060018192868501518155019401920162000578565b600584016000526020600020601f840160051c81016020851062000625575b601f830160051c8201811062000618575050620002a1565b6000815560010162000600565b508062000600565b90607f16906200028d565b0151905038806200018e565b906005840160005260206000209160005b601f1985168110620006a557509260c0949260019260069583601f198116106200068b575b505050811b016005820155620001a6565b015160001960f88460031b161c191690553880806200067a565b9192602060018192868501518155019401920162000655565b600584016000526020600020601f840160051c81016020851062000702575b601f830160051c82018110620006f55750506200016c565b60008155600101620006dd565b5080620006dd565b90607f169062000158565b600080fd5b6040519060e082016001600160401b038111838210176200052f57604052565b60405190602082016001600160401b038111838210176200052f57604052565b600180546001600160a01b039283166001600160a01b0319821681179092559091167f8be0079c531659141344cd1fd0a4f28419497f9722a3daafe3b4186f6b6457e0600080a356fe6080604052600436101561001257600080fd5b6000803560e01c80630ffb1d8b146117d657806319ac4614146117285780633c3a93d9146116ae5780633d36adc5146116585780633f4ba83a146115b45780634c46d22b14610e1f5780634c93943c14610d8357806351aa360a14610c6b5780635c975abb14610c4557806367482caa14610c1c578063715018a614610bc05780637f92cc7b1461089e57806382dc4a05146108615780638456cb59146107ef5780638da5cb5b146107c8578063a9a36dcd146107a1578063b20e8bcc1461069f578063b6da214414610635578063b9ac2e021461059a578063c4e5dacf14610573578063c530d392146103f4578063d246dd69146103d6578063d3e89483146102a9578063e096b3ac1461020d5763f2fde38b1461013057600080fd5b3461020a57602036600319011261020a5761014961185b565b610151611ae5565b6001600160a01b0380911690811561019f57600154826001600160a01b0319821617600155167f8be0079c531659141344cd1fd0a4f28419497f9722a3daafe3b4186f6b6457e0600080a380f35b60405162461bcd60e51b815260206004820152602660248201527f4f776e61626c653a206e6577206f776e657220697320746865207a65726f206160448201527f64647265737300000000000000000000000000000000000000000000000000006064820152608490fd5b80fd5b503461020a57602036600319011261020a5760043590600382101561020a5761027861023883611acc565b60ff8154169061029d6001820154916002810154600382015460048301549160ff6006610267600587016119b6565b950154169560405198898099611a5c565b602088015260408701526060860152608085015260e060a085015260e0840190611a8c565b90151560c08301520390f35b503461020a57602036600319011261020a576004358152600460205260408120805490600181015460028201546001600160a01b031693600383015490600484015460058501546006860154600787015491600888015493600989015460ff1696600a8a01610317906119b6565b9b600b8b01549a600c0154996040519c8d528c6001600160a01b038216906020015260408d018160a01c60ff169061034e91611a5c565b60608d019060a81c60ff169061036391611a7f565b60808c015260a08b015260c08a015260e089015261010088015261012087015261014086015260048210156103c2575083946103b1916101608601526101e080610180870152850190611a8c565b916101a08401526101c08301520390f35b634e487b7160e01b81526021600452602490fd5b503461020a578060031936011261020a576020600254604051908152f35b503461020a57604036600319011261020a5760043590600382101561020a5767ffffffffffffffff60243581811161056f573660238201121561056f5761045861044a6005923690602481600401359101611945565b94610453611ae5565b611acc565b0190835190811161055b5761046d825461197c565b601f8111610515575b50602080601f83116001146104b357508394829394926104a8575b50508160011b916000199060031b1c191617905580f35b015190503880610491565b90601f198316958486528286209286905b8882106104fd575050836001959697106104e4575b505050811b01905580f35b015160001960f88460031b161c191690553880806104d9565b806001859682949686015181550195019301906104c4565b82845260208420601f830160051c81019160208410610551575b601f0160051c01905b8181106105455750610476565b60008155600101610538565b909150819061052f565b634e487b7160e01b83526041600452602483fd5b8280fd5b503461020a578060031936011261020a5760206001600160a01b0360075416604051908152f35b503461020a5760a036600319011261020a5760043560038110156106315760807f798e8b3bfe459730fb3556eb9d5cee802909aa2b7187682c879e8eef2a93818291602435604435606435916105ee611ae5565b6105f784611acc565b816001820155826002820155836003820155600460843591015561061e6040518095611a5c565b602084015260408301526060820152a180f35b5080fd5b503461020a57602036600319011261020a577fe2bf6a03dd12862cdff99484cb74063d35aab421d99a43ed22168702eb74a7c760206001600160a01b0361067a61185b565b610682611ae5565b16806001600160a01b03196008541617600855604051908152a180f35b503461020a57602036600319011261020a576004356106bc611bd8565b8082526004602052604082206001600160a01b03806001830154163314908115610793575b501561074e57600901805460ff8116600481101561073a579061070660029215611ea8565b60ff191617905533907f7ccb895829fd342f252a2a7ec521b68a89d4fe7f83acc57725b5b358c290fca38380a36001815580f35b634e487b7160e01b85526021600452602485fd5b60405162461bcd60e51b815260206004820152600b60248201527f6e6f7420616c6c6f7765640000000000000000000000000000000000000000006044820152606490fd5b9050600154163314386106e1565b503461020a578060031936011261020a5760206001600160a01b0360085416604051908152f35b503461020a578060031936011261020a5760206001600160a01b0360015416604051908152f35b503461020a578060031936011261020a57610808611ae5565b610810611b3d565b7401000000000000000000000000000000000000000060ff60a01b1960015416176001557f62e78cea01bee320cd4e420270b5ea74000d11b0c9f74754ebdbfc544b05a2586020604051338152a180f35b503461020a57602036600319011261020a5760ff60406020926001600160a01b0361088a61185b565b168152600684522054166040519015158152f35b503461020a57602080600319360112610631576004356108bc611bd8565b6108c4611b3d565b80835260048252604083209160018301546001600160a01b03913383831603610b7c5760ff6009860154166004811015610b68576109029015611ea8565b60ff8260a81c166002811015610b6857600103610b245760078501918254421115610adf5760ff6109369160a01c16611acc565b9060405190610944826118a4565b61095260ff84541683611b91565b60018301549082015260c060ff600660028501549460408501958652600381015460608601526004810154608086015261098e600582016119b6565b60a08601520154161515910152519360028101916109b3868585541630903390611c7b565b6109c68685855416866007541690611c2e565b8684600754168585541690803b1561056f576040516359c38d3560e11b81526001600160a01b03929092166004830152336024830152604482018990526064820188905282908290608490829084905af18015610ad457610abc575b505062278d00420190814211610aa8577f62bafddae77b62ccd5a0dd2d11328dc9da52073f2bb8782fa9e350478e5cd5f39492610a9e9492600b925542600882015501610a70878254611b9d565b9055541660405191829133964291846040919493926001600160a01b03606083019616825260208201520152565b0390a36001815580f35b634e487b7160e01b88526011600452602488fd5b610ac5906118d6565b610ad0578638610a22565b8680fd5b6040513d84823e3d90fd5b60405162461bcd60e51b815260048101839052600760248201527f6e6f7420647565000000000000000000000000000000000000000000000000006044820152606490fd5b6064906040519062461bcd60e51b82526004820152600b60248201527f6e6f74206d6f6e74686c790000000000000000000000000000000000000000006044820152fd5b634e487b7160e01b87526021600452602487fd5b6064906040519062461bcd60e51b82526004820152600a60248201527f6e6f7420686f6c646572000000000000000000000000000000000000000000006044820152fd5b503461020a578060031936011261020a57610bd9611ae5565b60006001600160a01b036001546001600160a01b03198116600155167f8be0079c531659141344cd1fd0a4f28419497f9722a3daafe3b4186f6b6457e08280a380f35b503461020a57602036600319011261020a576020610c3b600435611f9c565b6040519015158152f35b503461020a578060031936011261020a57602060ff60015460a01c166040519015158152f35b503461020a57602036600319011261020a576020906004358152600482526101c060408220604051610c9c816118ea565b815481526001820154610cd960ff6001600160a01b039283811689860152610ccc828260a01c1660408701611b91565b60a81c1660608401611bc0565b6002830154166080820152600c60038301549260a08301938452600481015460c0840152600581015460e0840152600681015461010084015260078101546101208401526008810154610140840152610d3d60ff6009830154166101608501611bcc565b610d49600a82016119b6565b610180840152600b8101546101a0840152015492018290525181811115610d7c57610d749250611ef4565b604051908152f35b5050610d74565b503461020a57602036600319011261020a576001600160a01b03610da561185b565b610dad611ae5565b168015610df4576020817fe13eeec06262fb7b72b310db7ceacebdc3ad8f86e75c5000e4e15cf0ef50e5b1926001600160a01b03196007541617600755604051908152a180f35b606460405162461bcd60e51b81526020600482015260046024820152637a65726f60e01b6044820152fd5b503461020a57608036600319011261020a576003600435101561020a576002602435101561020a576001600160a01b03604435166044350361020a5767ffffffffffffffff6064351161020a5736602360643501121561020a5767ffffffffffffffff606435600401351161020a573660246064356004013560643501011161020a57610eaa611bd8565b610eb2611b3d565b6001600160a01b03600754161561156f576001600160a01b03604435168152600660205260ff6040822054161561152a57610eee600435611acc565b60ff600660405192610eff846118a4565b610f0c8382541685611b91565b60018101546020850152600281015460408501526003810154606085015260048101546080850152610f40600582016119b6565b60a085015201541615801560c08301526114e5576024356114db5760208101515b6024356114d1576301e13380915b610f868230336001600160a01b0360443516611c7b565b610fa7826001600160a01b03600754166001600160a01b0360443516611c2e565b6001600160a01b03600754166002546001810181116114bd578590823b15610631576040516359c38d3560e11b8152604480356001600160a01b03166004830152336024830152810186905260019190910160648201529182908183816084810103925af180156114b25761149f575b5060025492600019841461148b576001840160025561104663ffffffff60806060850151940151921642611b9d565b9060405192611054846118ea565b60018601845233602085015261106f60043560408601611b91565b61107e60243560608601611bc0565b6001600160a01b0360443516608085015260a084015260c08301528260e08301524261010083015261012082015242610140820152836101608201526110d03660643560040135602460643501611945565b610180820152816101a0820152836101c082015260018301845260046020526040842090805182556001600160a01b036020820151166001830154604083015191600383101561147757606084015160028110156114635774ff000000000000000000000000000000000000000075ff0000000000000000000000000000000000000000007fffffffffffffffffffff000000000000000000000000000000000000000000009260a81b169460a01b1692161717176001830155600282016001600160a01b036080830151166001600160a01b031982541617905560a0810151600383015560c0810151600483015560e08101516005830155610100810151600683015561012081015160078301556101408101516008830155600982016101608201516004811015610b685760ff8019835416911617905561018081015180519067ffffffffffffffff821161144f5761122e600a85015461197c565b601f811161140a575b50602090601f8311600114611397579180600c94926101c0948a9261138c575b50508160011b916000199060031b1c191617600a8501555b6101a0810151600b85015501519101553383526005602052604083208054906801000000000000000082101561137857906112af91600182018155611876565b81549060031b9060018501821b91600019901b19161790556040516112d681600435611a5c565b6112e560208201602435611a7f565b6001600160a01b0360443516604082015281606082015233907f09147a3b7df421f81a11d33a12288ec6433d1e656f825c98909462770fc6279160806001860192a3604080516001600160a01b03604435168152602081019290925242908201523391600101907f62bafddae77b62ccd5a0dd2d11328dc9da52073f2bb8782fa9e350478e5cd5f3908060608101610a9e565b634e487b7160e01b85526041600452602485fd5b015190503880611257565b90600a850188526020882091885b601f19851681106113f2575092600c94926001926101c09583601f198116106113d9575b505050811b01600a85015561126f565b015160001960f88460031b161c191690553880806113c9565b919260206001819286850151815501940192016113a5565b600a8501885260208820601f840160051c810160208510611448575b601f830160051c8201811061143c575050611237565b60008155600101611426565b5080611426565b634e487b7160e01b87526041600452602487fd5b634e487b7160e01b89526021600452602489fd5b634e487b7160e01b88526021600452602488fd5b634e487b7160e01b85526011600452602485fd5b6114ab909491946118d6565b9238611017565b6040513d87823e3d90fd5b634e487b7160e01b86526011600452602486fd5b62278d0091610f6f565b6040810151610f61565b60405162461bcd60e51b815260206004820152600d60248201527f706c616e20696e616374697665000000000000000000000000000000000000006044820152606490fd5b60405162461bcd60e51b815260206004820152601260248201527f746f6b656e206e6f7420616363657074656400000000000000000000000000006044820152606490fd5b60405162461bcd60e51b815260206004820152600c60248201527f706f6f6c206e6f742073657400000000000000000000000000000000000000006044820152606490fd5b503461020a578060031936011261020a576115cd611ae5565b60015460ff8160a01c16156116135760ff60a01b19166001557f5db9ee0a495bf2e6ff9c91a7834c1ba4fdd244a5e8aa4e537bd38aeae4b073aa6020604051338152a180f35b60405162461bcd60e51b815260206004820152601460248201527f5061757361626c653a206e6f74207061757365640000000000000000000000006044820152606490fd5b503461020a57604036600319011261020a5761167261185b565b6001600160a01b031681526005602052604081208054602435929083101561020a5760206116a08484611876565b90546040519160031b1c8152f35b503461020a57604036600319011261020a576001600160a01b036008541633036116e3576116e0602435600435611f01565b80f35b60405162461bcd60e51b815260206004820152601160248201527f6e6f7420636c61696d206d616e616765720000000000000000000000000000006044820152606490fd5b503461020a57602080600319360112610631576001600160a01b0361174b61185b565b168252600581526040822060405192838383549182815201908193835284832090835b8181106117c25750505084611784910385611907565b60405193838594850191818652518092526040850193925b8281106117ab57505050500390f35b83518552869550938101939281019260010161179c565b82548452928601926001928301920161176e565b503461020a57604036600319011261020a576117f061185b565b6024359081151580920361056f577fef81a9943b96c8df4ef243401c9bf5159146166211356898b52d382086168d92916001600160a01b03604092611833611ae5565b1690818552600660205282852060ff1981541660ff831617905582519182526020820152a180f35b600435906001600160a01b038216820361187157565b600080fd5b805482101561188e5760005260206000200190600090565b634e487b7160e01b600052603260045260246000fd5b60e0810190811067ffffffffffffffff8211176118c057604052565b634e487b7160e01b600052604160045260246000fd5b67ffffffffffffffff81116118c057604052565b6101e0810190811067ffffffffffffffff8211176118c057604052565b90601f8019910116810190811067ffffffffffffffff8211176118c057604052565b67ffffffffffffffff81116118c057601f01601f191660200190565b92919261195182611929565b9161195f6040519384611907565b829481845281830111611871578281602093846000960137010152565b90600182811c921680156119ac575b602083101461199657565b634e487b7160e01b600052602260045260246000fd5b91607f169161198b565b90604051918260008254926119ca8461197c565b908184526001948581169081600014611a3957506001146119f6575b50506119f492500383611907565b565b9093915060005260209081600020936000915b818310611a215750506119f4935082010138806119e6565b85548884018501529485019487945091830191611a09565b9150506119f494506020925060ff191682840152151560051b82010138806119e6565b906003821015611a695752565b634e487b7160e01b600052602160045260246000fd5b906002821015611a695752565b919082519283825260005b848110611ab8575050826000602080949584010152601f8019910116010190565b602081830181015184830182015201611a97565b6003811015611a69576000526003602052604060002090565b6001600160a01b03600154163303611af957565b606460405162461bcd60e51b815260206004820152602060248201527f4f776e61626c653a2063616c6c6572206973206e6f7420746865206f776e65726044820152fd5b60ff60015460a01c16611b4c57565b60405162461bcd60e51b815260206004820152601060248201527f5061757361626c653a20706175736564000000000000000000000000000000006044820152606490fd5b6003821015611a695752565b91908201809211611baa57565b634e487b7160e01b600052601160045260246000fd5b6002821015611a695752565b6004821015611a695752565b600260005414611be9576002600055565b60405162461bcd60e51b815260206004820152601f60248201527f5265656e7472616e637947756172643a207265656e7472616e742063616c6c006044820152606490fd5b916001600160a01b036040519263a9059cbb60e01b6020850152166024830152604482015260448152608081019181831067ffffffffffffffff8411176118c0576119f492604052611ccd565b9290604051926323b872dd60e01b60208501526001600160a01b03809216602485015216604483015260648201526064815260a081019181831067ffffffffffffffff8411176118c0576119f4926040525b6001600160a01b031690604051604081019080821067ffffffffffffffff8311176118c057611d5e916040526020938482527f5361666545524332303a206c6f772d6c6576656c2063616c6c206661696c6564858301526000808587829751910182855af13d15611e07573d91611d4383611929565b92611d516040519485611907565b83523d868885013e611e0b565b805191821591848315611de3575b505050905015611d795750565b6084906040519062461bcd60e51b82526004820152602a60248201527f5361666545524332303a204552433230206f7065726174696f6e20646964206e60448201527f6f742073756363656564000000000000000000000000000000000000000000006064820152fd5b9193818094500103126106315782015190811515820361020a575080388084611d6c565b6060915b91929015611e6d5750815115611e1f575090565b3b15611e285790565b60405162461bcd60e51b815260206004820152601d60248201527f416464726573733a2063616c6c20746f206e6f6e2d636f6e74726163740000006044820152606490fd5b825190915015611e805750805190602001fd5b60405162461bcd60e51b815260206004820152908190611ea4906024830190611a8c565b0390fd5b15611eaf57565b60405162461bcd60e51b815260206004820152600a60248201527f6e6f7420616374697665000000000000000000000000000000000000000000006044820152606490fd5b91908203918211611baa57565b8115611f985760005260046020526040600020600c600382015491019182549182600091818111600014611f9157611f399250611ef4565b8111611f4c57611f4891611b9d565b9055565b60405162461bcd60e51b815260206004820152601160248201527f657863656564732072656d61696e696e670000000000000000000000000000006044820152606490fd5b5050611f39565b5050565b801580156120b1575b6120ab576000526004602052604060002060405190611fc3826118ea565b80548252600181015461200160ff6001600160a01b03928381166020870152611ff4828260a01c1660408801611b91565b60a81c1660608501611bc0565b6002820154166080830152600381015460a0830152600481015460c0830152600581015460e08301526006810154610100830152600781015491610120810192835260088201546101408201526101c0600c60ff6009850154169361206b61016085019586611bcc565b612077600a82016119b6565b610180850152600b8101546101a08501520154910152516004811015611a69571590816120a2575090565b90505142111590565b50600090565b506002548111611fa556fea26469706673582212205a68067d25d1401b2be5d221004eaff5de7d99480e0fd47d40b07e4e0cb548d664736f6c63430008140033",
  "linkReferences": {},
  "deployedLinkReferences": {}
}