{
  "_format": "hh-sol-artifact-1",
  "contractName": "RiskPoolTreasury",
  "sourceName": "contracts/RiskPoolTreasury.sol",
  "abi": [
    {
      "inputs": [
        {
          "internalType": "address",
          "name": "_owner",
          "type": "address"
        }
      ],
      "stateMutability": "nonpayable",
      "type": "constructor"
    },
    {
      "anonymous": false,
      "inputs": [
        {
          "indexed": false,
          "internalType": "address",
          "name": "policyManager",
          "type": "address"
        },
        {
          "indexed": false,
          "internalType": "address",
          "name": "claimManager",
          "type": "address"
        },
        {
          "indexed": false,
          "internalType": "address",
          "name": "premiumRouter",
          "type": "address"
        }
      ],
      "name": "ManagersUpdated",
      "type": "event"
    },
    {
      "anonymous": false,
      "inputs": [
        {
          "indexed": true,
          "internalType": "address",
          "name": "previousOwner",
          "type": "address"
        },
        {
          "indexed": true,
          "internalType": "address",
          "name": "newOwner",
          "type": "address"
        }
      ],
      "name": "OwnershipTransferred",
      "type": "event"
    },
    {
      "anonymous": false,
      "inputs": [
        {
          "indexed": false,
          "internalType": "address",
          "name": "account",
          "type": "address"
        }
      ],
      "name": "Paused",
      "type": "event"
    },
    {
      "anonymous": false,
      "inputs": [
        {
          "indexed": true,
          "internalType": "address",
          "name": "token",
          "type": "address"
        },
        {
          "indexed": true,
          "internalType": "address",
          "name": "to",
          "type": "address"
        },
        {
          "indexed": false,
          "internalType": "uint256",
          "name": "amount",
          "type": "uint256"
        },
        {
          "indexed": true,
          "internalType": "uint256",
          "name": "claimId",
          "type": "uint256"
        },
        {
          "indexed": false,
          "internalType": "address",
          "name": "caller",
          "type": "address"
        }
      ],
      "name": "PayoutExecuted",
      "type": "event"
    },
    {
      "anonymous": false,
      "inputs": [
        {
          "indexed": true,
          "internalType": "address",
          "name": "token",
          "type": "address"
        },
        {
          "indexed": true,
          "internalType": "address",
          "name": "payer",
          "type": "address"
        },
        {
          "indexed": false,
          "internalType": "uint256",
          "name": "amount",
          "type": "uint256"
        },
        {
          "indexed": true,
          "internalType": "uint256",
          "name": "policyId",
          "type": "uint256"
        },
        {
          "indexed": false,
          "internalType": "address",
          "name": "caller",
          "type": "address"
        }
      ],
      "name": "PremiumDeposited",
      "type": "event"
    },
    {
      "anonymous": false,
      "inputs": [
        {
          "indexed": false,
          "internalType": "address",
          "name": "token",
          "type": "address"
        },
        {
          "indexed": false,
          "internalType": "bool",
          "name": "enabled",
          "type": "bool"
        }
      ],
      "name": "TokenWhitelisted",
      "type": "event"
    },
    {
      "anonymous": false,
      "inputs": [
        {
          "indexed": false,
          "internalType": "address",
          "name": "account",
          "type": "address"
        }
      ],
      "name": "Unpaused",
      "type": "event"
    },
    {
      "anonymous": false,
      "inputs": [
        {
          "indexed": true,
          "internalType": "address",
          "name": "token",
          "type": "address"
        },
        {
          "indexed": false,
          "internalType": "uint256",
          "name": "amount",
          "type": "uint256"
        },
        {
          "indexed": false,
          "internalType": "address",
          "name": "to",
          "type": "address"
        }
      ],
      "name": "Withdrawn",
      "type": "event"
    },
    {
      "inputs": [
        {
          "internalType": "address",
          "name": "",
          "type": "address"
        }
      ],
      "name": "acceptedToken",
      "outputs": [
        {
          "internalType": "bool",
          "name": "",
          "type": "bool"
        }
      ],
      "stateMutability": "view",
      "type": "function"
    },
    {
      "inputs": [
        {
          "internalType": "address",
          "name": "token",
          "type": "address"
        }
      ],
      "name": "balanceOf",
      "outputs": [
        {
          "internalType": "uint256",
          "name": "",
          "type": "uint256"
        }
      ],
      "stateMutability": "view",
      "type": "function"
    },
    {
      "inputs": [],
      "name": "claimManager",
      "outputs": [
        {
          "internalType": "address",
          "name": "",
          "type": "address"
        }
      ],
      "stateMutability": "view",
      "type": "function"
    },
    {
      "inputs": [
        {
          "internalType": "address",
          "name": "token",
          "type": "address"
        },
        {
          "internalType": "address",
          "name": "from",
          "type": "address"
        },
        {
          "internalType": "uint256",
          "name": "amount",
          "type": "uint256"
        },
        {
          "internalType": "uint256",
          "name": "policyId",
          "type": "uint256"
        }
      ],
      "name": "depositPremiumFrom",
      "outputs": [],
      "stateMutability": "nonpayable",
      "type": "function"
    },
    {
      "inputs": [
        {
          "internalType": "address",
          "name": "token",
          "type": "address"
        },
        {
          "internalType": "address",
          "name": "payer",
          "type": "address"
        },
        {
          "internalType": "uint256",
          "name": "amount",
          "type": "uint256"
        },
        {
          "internalType": "uint256",
          "name": "policyId",
          "type": "uint256"
        }
      ],
      "name": "notifyPremium",
      "outputs": [],
      "stateMutability": "nonpayable",
      "type": "function"
    },
    {
      "inputs": [],
      "name": "owner",
      "outputs": [
        {
          "internalType": "address",
          "name": "",
          "type": "address"
        }
      ],
      "stateMutability": "view",
      "type": "function"
    },
    {
      "inputs": [],
      "name": "pause",
      "outputs": [],
      "stateMutability": "nonpayable",
      "type": "function"
    },
    {
      "inputs": [],
      "name": "paused",
      "outputs": [
        {
          "internalType": "bool",
          "name": "",
          "type": "bool"
        }
      ],
      "stateMutability": "view",
      "type": "function"
    },
    {
      "inputs": [
        {
          "internalType": "address",
          "name": "token",
          "type": "address"
        },
        {
          "internalType": "address",
          "name": "to",
          "type": "address"
        },
        {
          "internalType": "uint256",
          "name": "amount",
          "type": "uint256"
        },
        {
          "internalType": "uint256",
          "name": "claimId",
          "type": "uint256"
        }
      ],
      "name": "payout",
      "outputs": [],
      "stateMutability": "nonpayable",
      "type": "function"
    },
    {
      "inputs": [],
      "name": "policyManager",
      "outputs": [
        {
          "internalType": "address",
          "name": "",
          "type": "address"
        }
      ],
      "stateMutability": "view",
      "type": "function"
    },
    {
      "inputs": [],
      "name": "premiumRouter",
      "outputs": [
        {
          "internalType": "address",
          "name": "",
          "type": "address"
        }
      ],
      "stateMutability": "view",
      "type": "function"
    },
    {
      "inputs": [],
      "name": "renounceOwnership",
      "outputs": [],
      "stateMutability": "nonpayable",
      "type": "function"
    },
    {
      "inputs": [
        {
          "internalType": "address",
          "name": "token",
          "type": "address"
        },
        {
          "internalType": "bool",
          "name": "enabled",
          "type": "bool"
        }
      ],
      "name": "setAcceptedToken",
      "outputs": [],
      "stateMutability": "nonpayable",
      "type": "function"
    },
    {
      "inputs": [
        {
          "internalType": "address",
          "name": "_policyManager",
          "type": "address"
        },
        {
          "internalType": "address",
          "name": "_claimManager",
          "type": "address"
        },
        {
          "internalType": "address",
          "name": "_premiumRouter",
          "type": "address"
        }
      ],
      "name": "setManagers",
      "outputs": [],
      "stateMutability": "nonpayable",
      "type": "function"
    },
    {
      "inputs": [
        {
          "internalType": "address",
          "name": "",
          "type": "address"
        }
      ],
      "name": "totalPayouts",
      "outputs": [
        {
          "internalType": "uint256",
          "name": "",
          "type": "uint256"
        }
      ],
      "stateMutability": "view",
      "type": "function"
    },
    {
      "inputs": [
        {
          "internalType": "address",
          "name": "",
          "type": "address"
        }
      ],
      "name": "totalPremiums",
      "outputs": [
        {
          "internalType": "uint256",
          "name": "",
          "type": "uint256"
        }
      ],
      "stateMutability": "view",
      "type": "function"
    },
    {
      "inputs": [
        {
          "internalType": "address",
          "name": "newOwner",
          "type": "address"
        }
      ],
      "name": "transferOwnership",
      "outputs": [],
      "stateMutability": "nonpayable",
      "type": "function"
    },
    {
      "inputs": [],
      "name": "unpause",
      "outputs": [],
      "stateMutability": "nonpayable",
      "type": "function"
    },
    {
      "inputs": [
        {
          "internalType": "address",
          "name": "token",
          "type": "address"
        },
        {
          "internalType": "uint256",
          "name": "amount",
          "type": "uint256"
        },
        {
          "internalType": "address",
          "name": "to",
          "type": "address"
        }
      ],
      "name": "withdraw",
      "outputs": [],
      "stateMutability": "nonpayable",
      "type": "function"
    }
  ],
  "bytecode": "0x60803461008157601f6110bd38819003918201601f19168301916001600160401b038311848410176100865780849260209460405283398101031261008157516001600160a01b0381168103610081576100729061005c3361009c565b6000805460ff60a01b191690556001805561009c565b604051610fd990816100e48239f35b600080fd5b634e487b7160e01b600052604160045260246000fd5b600080546001600160a01b039283166001600160a01b03198216811783559216907f8be0079c531659141344cd1fd0a4f28419497f9722a3daafe3b4186f6b6457e09080a356fe6080604081815260048036101561001557600080fd5b600092833560e01c9081629ee76c14610a3d575080631f615023146108f55780633f4ba83a146108535780634ae555331461072357806355f5e7de146106e75780635c975abb146106c25780635d03999f1461060e57806369328dec1461057657806370a08231146104e1578063715018a61461047b5780637c56bb10146104515780637fd7a0121461041a5780638456cb59146103aa5780638da5cb5b14610384578063a9a36dcd1461035c578063ab3dbf3b14610334578063b3871a6a14610266578063c997dbca146101dc5763f2fde38b146100f357600080fd5b346101d85760203660031901126101d85761010c610a71565b90610115610adb565b6001600160a01b0380921692831561016f57505082548273ffffffffffffffffffffffffffffffffffffffff198216178455167f8be0079c531659141344cd1fd0a4f28419497f9722a3daafe3b4186f6b6457e08380a380f35b906020608492519162461bcd60e51b8352820152602660248201527f4f776e61626c653a206e6577206f776e657220697320746865207a65726f206160448201527f64647265737300000000000000000000000000000000000000000000000000006064820152fd5b8280fd5b5050346102625780600319360112610262576101f6610a71565b9060243580151580910361025e576001600160a01b037fef81a9943b96c8df4ef243401c9bf5159146166211356898b52d382086168d9293610236610adb565b1690818552600560205282852060ff1981541660ff831617905582519182526020820152a180f35b8380fd5b5080fd5b50346101d857610320917fb15742dde585aea6116d06298550818042c6646563429c7ba023f1dfba5c28986102cd61029d36610aa2565b9791926102ab979197610b33565b6001600160a01b039485928380600254163314918215610326575b5050610b87565b169485895260056020526102e660ff828b205416610bd3565b6102f1871515610c1f565b8589526006602052808920610307888254610c6b565b9055519586523360208701529116939081906040820190565b0390a480f35b9091505416331483386102c6565b5050346102625781600319360112610262576020906001600160a01b03600254169051908152f35b5050346102625781600319360112610262576020906001600160a01b03600354169051908152f35b5050346102625781600319360112610262576001600160a01b0360209254169051908152f35b50503461026257816003193601126102625760207f62e78cea01bee320cd4e420270b5ea74000d11b0c9f74754ebdbfc544b05a258916103e8610adb565b6103f0610b33565b7401000000000000000000000000000000000000000060ff60a01b1985541617845551338152a180f35b50503461026257602036600319011261026257806020926001600160a01b03610441610a71565b1681526007845220549051908152f35b509134610478578060031936011261047857506001600160a01b0360209254169051908152f35b80fd5b8334610478578060031936011261047857610494610adb565b806001600160a01b03815473ffffffffffffffffffffffffffffffffffffffff1981168355167f8be0079c531659141344cd1fd0a4f28419497f9722a3daafe3b4186f6b6457e08280a380f35b5091903461026257602092836003193601126101d857836001600160a01b03610508610a71565b169160248451809481936370a0823160e01b835230908301525afa92831561056b578093610539575b505051908152f35b909192508382813d8311610564575b6105528183610ce4565b81010312610478575051903880610531565b503d610548565b8251903d90823e3d90fd5b505034610262576060366003190112610262577fcbcdbdf10631a43cc99c80acace8232649421c3f4f73919f16013d47c83a687a6105b2610a71565b6024356106046001600160a01b036105c8610a8c565b936105d1610adb565b6105d9610c8e565b16946105e6838588610f54565b519182526001600160a01b0390921660208201529081906040820190565b0390a26001805580f35b50346101d85760603660031901126101d857610628610a71565b91602435926001600160a01b03918285168095036106be577faa791904f168e100da5afac6d21358cc3e3bd0ae468e5a657ea169077ac4b939946060948461066e610a8c565b94610677610adb565b169473ffffffffffffffffffffffffffffffffffffffff1994868660025416176002558386600354161760035516809482541617905581519384526020840152820152a180f35b8580fd5b50503461026257816003193601126102625760ff6020925460a01c1690519015158152f35b5050346102625760203660031901126102625760ff816020936001600160a01b03610710610a71565b1681526005855220541690519015158152f35b50346101d85761073236610aa2565b94909161073d610b33565b610745610c8e565b6001600160a01b038094816002541633148015610847575b61076690610b87565b1693848852600560205261077f60ff848a205416610bd3565b61078a841515610c1f565b8251916323b872dd60e01b602084015216948560248301523060448301528360648301526064825260a082019082821067ffffffffffffffff8311176108345750916107fe7fb15742dde585aea6116d06298550818042c6646563429c7ba023f1dfba5c2898949261082a94835286610d1c565b8488526006602052808820610814838254610c6b565b9055519081523360208201529081906040820190565b0390a46001805580f35b634e487b7160e01b895260419052602488fd5b5086548216331461075d565b50346101d857826003193601126101d85761086c610adb565b82549060ff8260a01c16156108b257507f5db9ee0a495bf2e6ff9c91a7834c1ba4fdd244a5e8aa4e537bd38aeae4b073aa9160ff60a01b1960209216845551338152a180f35b606490602084519162461bcd60e51b8352820152601460248201527f5061757361626c653a206e6f74207061757365640000000000000000000000006044820152fd5b50346101d85761090436610aa2565b94909161090f610b33565b610917610c8e565b6001600160a01b0393846003541633036109fa57841693848852600560205261094560ff848a205416610bd3565b81169485156109b757509161082a916109a3827f8613072a399b358a424c9885b7f612c57effd4f6f68ea2915bab4a8cf0ede42c95610985821515610c1f565b878b526007602052838b2061099b838254610c6b565b905587610f54565b519081523360208201529081906040820190565b606490602084519162461bcd60e51b8352820152600960248201527f7a65726f206164647200000000000000000000000000000000000000000000006044820152fd5b825162461bcd60e51b8152602081880152601160248201527f4e6f7420636c61696d206d616e616765720000000000000000000000000000006044820152606490fd5b849084346101d85760203660031901126101d8576020926001600160a01b03610a64610a71565b1681526006845220548152f35b600435906001600160a01b0382168203610a8757565b600080fd5b604435906001600160a01b0382168203610a8757565b6080906003190112610a87576001600160a01b03906004358281168103610a8757916024359081168103610a8757906044359060643590565b6001600160a01b03600054163303610aef57565b606460405162461bcd60e51b815260206004820152602060248201527f4f776e61626c653a2063616c6c6572206973206e6f7420746865206f776e65726044820152fd5b60ff60005460a01c16610b4257565b60405162461bcd60e51b815260206004820152601060248201527f5061757361626c653a20706175736564000000000000000000000000000000006044820152606490fd5b15610b8e57565b60405162461bcd60e51b815260206004820152601160248201527f4e6f7420706f6c6963792f726f757465720000000000000000000000000000006044820152606490fd5b15610bda57565b60405162461bcd60e51b815260206004820152601260248201527f546f6b656e206e6f7420616363657074656400000000000000000000000000006044820152606490fd5b15610c2657565b60405162461bcd60e51b815260206004820152600860248201527f416d6f756e743d300000000000000000000000000000000000000000000000006044820152606490fd5b91908201809211610c7857565b634e487b7160e01b600052601160045260246000fd5b600260015414610c9f576002600155565b60405162461bcd60e51b815260206004820152601f60248201527f5265656e7472616e637947756172643a207265656e7472616e742063616c6c006044820152606490fd5b90601f8019910116810190811067ffffffffffffffff821117610d0657604052565b634e487b7160e01b600052604160045260246000fd5b6001600160a01b0316906040516040810167ffffffffffffffff9082811082821117610d06576040526020938483527f5361666545524332303a206c6f772d6c6576656c2063616c6c206661696c6564858401526000808587829751910182855af1903d15610e75573d928311610e615790610db893929160405192610dab88601f19601f8401160185610ce4565b83523d868885013e610e80565b805191821591848315610e3d575b505050905015610dd35750565b6084906040519062461bcd60e51b82526004820152602a60248201527f5361666545524332303a204552433230206f7065726174696f6e20646964206e60448201527f6f742073756363656564000000000000000000000000000000000000000000006064820152fd5b91938180945001031261026257820151908115158203610478575080388084610dc6565b634e487b7160e01b85526041600452602485fd5b90610db89392506060915b91929015610ee25750815115610e94575090565b3b15610e9d5790565b60405162461bcd60e51b815260206004820152601d60248201527f416464726573733a2063616c6c20746f206e6f6e2d636f6e74726163740000006044820152606490fd5b825190915015610ef55750805190602001fd5b6040519062461bcd60e51b82528160208060048301528251908160248401526000935b828510610f3b575050604492506000838284010152601f80199101168101030190fd5b8481018201518686016044015293810193859350610f18565b916001600160a01b036040519263a9059cbb60e01b6020850152166024830152604482015260448152608081019181831067ffffffffffffffff841117610d0657610fa192604052610d1c565b56fea2646970667358221220066e1cf0303d5a8c772db0042fd7eab1402fd8d465dc108fbec0ec1f2433497764736f6c63430008140033",
  "linkReferences": {},
  "deployedLinkReferences": {}
}